{
  "_format": "hh-sol-artifact-1",
  "contractName": "NFT",
  "sourceName": "contracts/NFT.sol",
  "abi": [
    {
      "inputs": [],
      "stateMutability": "nonpayable",
      "type": "constructor"
    },
    {
      "inputs": [
        {
          "internalType": "address",
          "name": "sender",
          "type": "address"
        },
        {
          "internalType": "uint256",
          "name": "tokenId",
          "type": "uint256"
        },
        {
          "internalType": "address",
          "name": "owner",
          "type": "address"
        }
      ],
      "name": "ERC721IncorrectOwner",
      "type": "error"
    },
    {
      "inputs": [
        {
          "internalType": "address",
          "name": "operator",
          "type": "address"
        },
        {
          "internalType": "uint256",
          "name": "tokenId",
          "type": "uint256"
        }
      ],
      "name": "ERC721InsufficientApproval",
      "type": "error"
    },
    {
      "inputs": [
        {
          "internalType": "address",
          "name": "approver",
          "type": "address"
        }
      ],
      "name": "ERC721InvalidApprover",
      "type": "error"
    },
    {
      "inputs": [
        {
          "internalType": "address",
          "name": "operator",
          "type": "address"
        }
      ],
      "name": "ERC721InvalidOperator",
      "type": "error"
    },
    {
      "inputs": [
        {
          "internalType": "address",
          "name": "owner",
          "type": "address"
        }
      ],
      "name": "ERC721InvalidOwner",
      "type": "error"
    },
    {
      "inputs": [
        {
          "internalType": "address",
          "name": "receiver",
          "type": "address"
        }
      ],
      "name": "ERC721InvalidReceiver",
      "type": "error"
    },
    {
      "inputs": [
        {
          "internalType": "address",
          "name": "sender",
          "type": "address"
        }
      ],
      "name": "ERC721InvalidSender",
      "type": "error"
    },
    {
      "inputs": [
        {
          "internalType": "uint256",
          "name": "tokenId",
          "type": "uint256"
        }
      ],
      "name": "ERC721NonexistentToken",
      "type": "error"
    },
    {
      "inputs": [
        {
          "internalType": "address",
          "name": "owner",
          "type": "address"
        }
      ],
      "name": "OwnableInvalidOwner",
      "type": "error"
    },
    {
      "inputs": [
        {
          "internalType": "address",
          "name": "account",
          "type": "address"
        }
      ],
      "name": "OwnableUnauthorizedAccount",
      "type": "error"
    },
    {
      "anonymous": false,
      "inputs": [
        {
          "indexed": true,
          "internalType": "address",
          "name": "owner",
          "type": "address"
        },
        {
          "indexed": true,
          "internalType": "address",
          "name": "approved",
          "type": "address"
        },
        {
          "indexed": true,
          "internalType": "uint256",
          "name": "tokenId",
          "type": "uint256"
        }
      ],
      "name": "Approval",
      "type": "event"
    },
    {
      "anonymous": false,
      "inputs": [
        {
          "indexed": true,
          "internalType": "address",
          "name": "owner",
          "type": "address"
        },
        {
          "indexed": true,
          "internalType": "address",
          "name": "operator",
          "type": "address"
        },
        {
          "indexed": false,
          "internalType": "bool",
          "name": "approved",
          "type": "bool"
        }
      ],
      "name": "ApprovalForAll",
      "type": "event"
    },
    {
      "anonymous": false,
      "inputs": [
        {
          "indexed": false,
          "internalType": "uint256",
          "name": "_fromTokenId",
          "type": "uint256"
        },
        {
          "indexed": false,
          "internalType": "uint256",
          "name": "_toTokenId",
          "type": "uint256"
        }
      ],
      "name": "BatchMetadataUpdate",
      "type": "event"
    },
    {
      "anonymous": false,
      "inputs": [
        {
          "indexed": false,
          "internalType": "uint256",
          "name": "_tokenId",
          "type": "uint256"
        }
      ],
      "name": "MetadataUpdate",
      "type": "event"
    },
    {
      "anonymous": false,
      "inputs": [
        {
          "indexed": true,
          "internalType": "address",
          "name": "previousOwner",
          "type": "address"
        },
        {
          "indexed": true,
          "internalType": "address",
          "name": "newOwner",
          "type": "address"
        }
      ],
      "name": "OwnershipTransferred",
      "type": "event"
    },
    {
      "anonymous": false,
      "inputs": [
        {
          "indexed": true,
          "internalType": "address",
          "name": "from",
          "type": "address"
        },
        {
          "indexed": true,
          "internalType": "address",
          "name": "to",
          "type": "address"
        },
        {
          "indexed": true,
          "internalType": "uint256",
          "name": "tokenId",
          "type": "uint256"
        }
      ],
      "name": "Transfer",
      "type": "event"
    },
    {
      "inputs": [
        {
          "internalType": "address",
          "name": "to",
          "type": "address"
        },
        {
          "internalType": "uint256",
          "name": "tokenId",
          "type": "uint256"
        }
      ],
      "name": "approve",
      "outputs": [],
      "stateMutability": "nonpayable",
      "type": "function"
    },
    {
      "inputs": [
        {
          "internalType": "address",
          "name": "owner",
          "type": "address"
        }
      ],
      "name": "balanceOf",
      "outputs": [
        {
          "internalType": "uint256",
          "name": "",
          "type": "uint256"
        }
      ],
      "stateMutability": "view",
      "type": "function"
    },
    {
      "inputs": [
        {
          "internalType": "string",
          "name": "tokenURI",
          "type": "string"
        }
      ],
      "name": "createToken",
      "outputs": [
        {
          "internalType": "uint256",
          "name": "",
          "type": "uint256"
        }
      ],
      "stateMutability": "nonpayable",
      "type": "function"
    },
    {
      "inputs": [
        {
          "internalType": "uint256",
          "name": "tokenId",
          "type": "uint256"
        }
      ],
      "name": "getApproved",
      "outputs": [
        {
          "internalType": "address",
          "name": "",
          "type": "address"
        }
      ],
      "stateMutability": "view",
      "type": "function"
    },
    {
      "inputs": [],
      "name": "getCurrentToken",
      "outputs": [
        {
          "internalType": "uint256",
          "name": "",
          "type": "uint256"
        }
      ],
      "stateMutability": "view",
      "type": "function"
    },
    {
      "inputs": [
        {
          "internalType": "address",
          "name": "owner",
          "type": "address"
        },
        {
          "internalType": "address",
          "name": "operator",
          "type": "address"
        }
      ],
      "name": "isApprovedForAll",
      "outputs": [
        {
          "internalType": "bool",
          "name": "",
          "type": "bool"
        }
      ],
      "stateMutability": "view",
      "type": "function"
    },
    {
      "inputs": [],
      "name": "name",
      "outputs": [
        {
          "internalType": "string",
          "name": "",
          "type": "string"
        }
      ],
      "stateMutability": "view",
      "type": "function"
    },
    {
      "inputs": [],
      "name": "owner",
      "outputs": [
        {
          "internalType": "address",
          "name": "",
          "type": "address"
        }
      ],
      "stateMutability": "view",
      "type": "function"
    },
    {
      "inputs": [
        {
          "internalType": "uint256",
          "name": "tokenId",
          "type": "uint256"
        }
      ],
      "name": "ownerOf",
      "outputs": [
        {
          "internalType": "address",
          "name": "",
          "type": "address"
        }
      ],
      "stateMutability": "view",
      "type": "function"
    },
    {
      "inputs": [],
      "name": "renounceOwnership",
      "outputs": [],
      "stateMutability": "nonpayable",
      "type": "function"
    },
    {
      "inputs": [
        {
          "internalType": "address",
          "name": "from",
          "type": "address"
        },
        {
          "internalType": "address",
          "name": "to",
          "type": "address"
        },
        {
          "internalType": "uint256",
          "name": "tokenId",
          "type": "uint256"
        }
      ],
      "name": "safeTransferFrom",
      "outputs": [],
      "stateMutability": "nonpayable",
      "type": "function"
    },
    {
      "inputs": [
        {
          "internalType": "address",
          "name": "from",
          "type": "address"
        },
        {
          "internalType": "address",
          "name": "to",
          "type": "address"
        },
        {
          "internalType": "uint256",
          "name": "tokenId",
          "type": "uint256"
        },
        {
          "internalType": "bytes",
          "name": "data",
          "type": "bytes"
        }
      ],
      "name": "safeTransferFrom",
      "outputs": [],
      "stateMutability": "nonpayable",
      "type": "function"
    },
    {
      "inputs": [
        {
          "internalType": "address",
          "name": "operator",
          "type": "address"
        },
        {
          "internalType": "bool",
          "name": "approved",
          "type": "bool"
        }
      ],
      "name": "setApprovalForAll",
      "outputs": [],
      "stateMutability": "nonpayable",
      "type": "function"
    },
    {
      "inputs": [
        {
          "internalType": "bytes4",
          "name": "interfaceId",
          "type": "bytes4"
        }
      ],
      "name": "supportsInterface",
      "outputs": [
        {
          "internalType": "bool",
          "name": "",
          "type": "bool"
        }
      ],
      "stateMutability": "view",
      "type": "function"
    },
    {
      "inputs": [],
      "name": "symbol",
      "outputs": [
        {
          "internalType": "string",
          "name": "",
          "type": "string"
        }
      ],
      "stateMutability": "view",
      "type": "function"
    },
    {
      "inputs": [
        {
          "internalType": "uint256",
          "name": "tokenId",
          "type": "uint256"
        }
      ],
      "name": "tokenURI",
      "outputs": [
        {
          "internalType": "string",
          "name": "",
          "type": "string"
        }
      ],
      "stateMutability": "view",
      "type": "function"
    },
    {
      "inputs": [
        {
          "internalType": "address",
          "name": "from",
          "type": "address"
        },
        {
          "internalType": "address",
          "name": "to",
          "type": "address"
        },
        {
          "internalType": "uint256",
          "name": "tokenId",
          "type": "uint256"
        }
      ],
      "name": "transferFrom",
      "outputs": [],
      "stateMutability": "nonpayable",
      "type": "function"
    },
    {
      "inputs": [
        {
          "internalType": "address",
          "name": "newOwner",
          "type": "address"
        }
      ],
      "name": "transferOwnership",
      "outputs": [],
      "stateMutability": "nonpayable",
      "type": "function"
    }
  ],
  "bytecode": "0x60806040523480156200001157600080fd5b50336040518060400160405280600e81526020016d4e46544d61726b6574706c61636560901b815250604051806040016040528060048152602001634e46544d60e01b8152508160009081620000689190620001b2565b506001620000778282620001b2565b5050506001600160a01b038116620000a957604051631e4fbdf760e01b81526000600482015260240160405180910390fd5b620000b481620000bb565b506200027e565b600780546001600160a01b038381166001600160a01b0319831681179093556040519116919082907f8be0079c531659141344cd1fd0a4f28419497f9722a3daafe3b4186f6b6457e090600090a35050565b634e487b7160e01b600052604160045260246000fd5b600181811c908216806200013857607f821691505b6020821081036200015957634e487b7160e01b600052602260045260246000fd5b50919050565b601f821115620001ad57600081815260208120601f850160051c81016020861015620001885750805b601f850160051c820191505b81811015620001a95782815560010162000194565b5050505b505050565b81516001600160401b03811115620001ce57620001ce6200010d565b620001e681620001df845462000123565b846200015f565b602080601f8311600181146200021e5760008415620002055750858301515b600019600386901b1c1916600185901b178555620001a9565b600085815260208120601f198616915b828110156200024f578886015182559484019460019091019084016200022e565b50858210156200026e5787850151600019600388901b60f8161c191681555b5050505050600190811b01905550565b6113e1806200028e6000396000f3fe608060405234801561001057600080fd5b50600436106101165760003560e01c8063715018a6116100a2578063b88d4fde11610071578063b88d4fde14610239578063c87b56dd1461024c578063e985e9c51461025f578063ef2d174614610272578063f2fde38b1461027a57600080fd5b8063715018a6146102055780638da5cb5b1461020d57806395d89b411461021e578063a22cb4651461022657600080fd5b806323b872dd116100e957806323b872dd1461019857806342842e0e146101ab57806345576f94146101be5780636352211e146101df57806370a08231146101f257600080fd5b806301ffc9a71461011b57806306fdde0314610143578063081812fc14610158578063095ea7b314610183575b600080fd5b61012e610129366004610ec5565b61028d565b60405190151581526020015b60405180910390f35b61014b6102b8565b60405161013a9190610f32565b61016b610166366004610f45565b61034a565b6040516001600160a01b03909116815260200161013a565b610196610191366004610f7a565b610373565b005b6101966101a6366004610fa4565b610382565b6101966101b9366004610fa4565b610412565b6101d16101cc36600461106c565b610432565b60405190815260200161013a565b61016b6101ed366004610f45565b61045f565b6101d16102003660046110b5565b61046a565b6101966104b2565b6007546001600160a01b031661016b565b61014b6104c6565b6101966102343660046110d0565b6104d5565b61019661024736600461110c565b6104e0565b61014b61025a366004610f45565b6104f8565b61012e61026d366004611188565b610609565b6008546101d1565b6101966102883660046110b5565b610637565b60006001600160e01b03198216632483248360e11b14806102b257506102b282610675565b92915050565b6060600080546102c7906111bb565b80601f01602080910402602001604051908101604052809291908181526020018280546102f3906111bb565b80156103405780601f1061031557610100808354040283529160200191610340565b820191906000526020600020905b81548152906001019060200180831161032357829003601f168201915b5050505050905090565b6000610355826106c5565b506000828152600460205260409020546001600160a01b03166102b2565b61037e8282336106fe565b5050565b6001600160a01b0382166103b157604051633250574960e11b8152600060048201526024015b60405180910390fd5b60006103be83833361070b565b9050836001600160a01b0316816001600160a01b03161461040c576040516364283d7b60e01b81526001600160a01b03808616600483015260248201849052821660448201526064016103a8565b50505050565b61042d838383604051806020016040528060008152506104e0565b505050565b6008805460009182610443836111f5565b90915550506008546104553382610804565b6102b28184610869565b60006102b2826106c5565b60006001600160a01b038216610496576040516322718ad960e21b8152600060048201526024016103a8565b506001600160a01b031660009081526003602052604090205490565b6104ba6108b9565b6104c460006108e6565b565b6060600180546102c7906111bb565b61037e338383610938565b6104eb848484610382565b61040c33858585856109d7565b6060610503826106c5565b506000828152600660205260408120805461051d906111bb565b80601f0160208091040260200160405190810160405280929190818152602001828054610549906111bb565b80156105965780601f1061056b57610100808354040283529160200191610596565b820191906000526020600020905b81548152906001019060200180831161057957829003601f168201915b5050505050905060006105b460408051602081019091526000815290565b905080516000036105c6575092915050565b8151156105f85780826040516020016105e092919061121c565b60405160208183030381529060405292505050919050565b61060184610b02565b949350505050565b6001600160a01b03918216600090815260056020908152604080832093909416825291909152205460ff1690565b61063f6108b9565b6001600160a01b03811661066957604051631e4fbdf760e01b8152600060048201526024016103a8565b610672816108e6565b50565b60006001600160e01b031982166380ac58cd60e01b14806106a657506001600160e01b03198216635b5e139f60e01b145b806102b257506301ffc9a760e01b6001600160e01b03198316146102b2565b6000818152600260205260408120546001600160a01b0316806102b257604051637e27328960e01b8152600481018490526024016103a8565b61042d8383836001610b77565b6000828152600260205260408120546001600160a01b039081169083161561073857610738818486610c7d565b6001600160a01b0381161561077657610755600085600080610b77565b6001600160a01b038116600090815260036020526040902080546000190190555b6001600160a01b038516156107a5576001600160a01b0385166000908152600360205260409020805460010190555b60008481526002602052604080822080546001600160a01b0319166001600160a01b0389811691821790925591518793918516917fddf252ad1be2c89b69c2b068fc378daa952ba7f163c4a11628f55a4df523b3ef91a4949350505050565b6001600160a01b03821661082e57604051633250574960e11b8152600060048201526024016103a8565b600061083c8383600061070b565b90506001600160a01b0381161561042d576040516339e3563760e11b8152600060048201526024016103a8565b60008281526006602052604090206108818282611291565b506040518281527ff8e1a15aba9398e019f0b49df1a4fde98ee17ae345cb5f6b5e2c27f5033e8ce79060200160405180910390a15050565b6007546001600160a01b031633146104c45760405163118cdaa760e01b81523360048201526024016103a8565b600780546001600160a01b038381166001600160a01b0319831681179093556040519116919082907f8be0079c531659141344cd1fd0a4f28419497f9722a3daafe3b4186f6b6457e090600090a35050565b6001600160a01b03821661096a57604051630b61174360e31b81526001600160a01b03831660048201526024016103a8565b6001600160a01b03838116600081815260056020908152604080832094871680845294825291829020805460ff191686151590811790915591519182527f17307eab39ab6107e8899845ad3d59bd9653f200f220920489ca2b5937696c31910160405180910390a3505050565b6001600160a01b0383163b15610afb57604051630a85bd0160e11b81526001600160a01b0384169063150b7a0290610a19908890889087908790600401611351565b6020604051808303816000875af1925050508015610a54575060408051601f3d908101601f19168201909252610a519181019061138e565b60015b610abd573d808015610a82576040519150601f19603f3d011682016040523d82523d6000602084013e610a87565b606091505b508051600003610ab557604051633250574960e11b81526001600160a01b03851660048201526024016103a8565b805160208201fd5b6001600160e01b03198116630a85bd0160e11b14610af957604051633250574960e11b81526001600160a01b03851660048201526024016103a8565b505b5050505050565b6060610b0d826106c5565b506000610b2560408051602081019091526000815290565b90506000815111610b455760405180602001604052806000815250610b70565b80610b4f84610ce1565b604051602001610b6092919061121c565b6040516020818303038152906040525b9392505050565b8080610b8b57506001600160a01b03821615155b15610c4d576000610b9b846106c5565b90506001600160a01b03831615801590610bc75750826001600160a01b0316816001600160a01b031614155b8015610bda5750610bd88184610609565b155b15610c035760405163a9fbf51f60e01b81526001600160a01b03841660048201526024016103a8565b8115610c4b5783856001600160a01b0316826001600160a01b03167f8c5be1e5ebec7d5bd14f71427d1e84f3dd0314c0f7b2291e5b200ac8c7c3b92560405160405180910390a45b505b5050600090815260046020526040902080546001600160a01b0319166001600160a01b0392909216919091179055565b610c88838383610d74565b61042d576001600160a01b038316610cb657604051637e27328960e01b8152600481018290526024016103a8565b60405163177e802f60e01b81526001600160a01b0383166004820152602481018290526044016103a8565b60606000610cee83610dd7565b600101905060008167ffffffffffffffff811115610d0e57610d0e610fe0565b6040519080825280601f01601f191660200182016040528015610d38576020820181803683370190505b5090508181016020015b600019016f181899199a1a9b1b9c1cb0b131b232b360811b600a86061a8153600a8504945084610d4257509392505050565b60006001600160a01b038316158015906106015750826001600160a01b0316846001600160a01b03161480610dae5750610dae8484610609565b806106015750506000908152600460205260409020546001600160a01b03908116911614919050565b60008072184f03e93ff9f4daa797ed6e38ed64bf6a1f0160401b8310610e165772184f03e93ff9f4daa797ed6e38ed64bf6a1f0160401b830492506040015b6d04ee2d6d415b85acef81000000008310610e42576d04ee2d6d415b85acef8100000000830492506020015b662386f26fc100008310610e6057662386f26fc10000830492506010015b6305f5e1008310610e78576305f5e100830492506008015b6127108310610e8c57612710830492506004015b60648310610e9e576064830492506002015b600a83106102b25760010192915050565b6001600160e01b03198116811461067257600080fd5b600060208284031215610ed757600080fd5b8135610b7081610eaf565b60005b83811015610efd578181015183820152602001610ee5565b50506000910152565b60008151808452610f1e816020860160208601610ee2565b601f01601f19169290920160200192915050565b602081526000610b706020830184610f06565b600060208284031215610f5757600080fd5b5035919050565b80356001600160a01b0381168114610f7557600080fd5b919050565b60008060408385031215610f8d57600080fd5b610f9683610f5e565b946020939093013593505050565b600080600060608486031215610fb957600080fd5b610fc284610f5e565b9250610fd060208501610f5e565b9150604084013590509250925092565b634e487b7160e01b600052604160045260246000fd5b600067ffffffffffffffff8084111561101157611011610fe0565b604051601f8501601f19908116603f0116810190828211818310171561103957611039610fe0565b8160405280935085815286868601111561105257600080fd5b858560208301376000602087830101525050509392505050565b60006020828403121561107e57600080fd5b813567ffffffffffffffff81111561109557600080fd5b8201601f810184136110a657600080fd5b61060184823560208401610ff6565b6000602082840312156110c757600080fd5b610b7082610f5e565b600080604083850312156110e357600080fd5b6110ec83610f5e565b91506020830135801515811461110157600080fd5b809150509250929050565b6000806000806080858703121561112257600080fd5b61112b85610f5e565b935061113960208601610f5e565b925060408501359150606085013567ffffffffffffffff81111561115c57600080fd5b8501601f8101871361116d57600080fd5b61117c87823560208401610ff6565b91505092959194509250565b6000806040838503121561119b57600080fd5b6111a483610f5e565b91506111b260208401610f5e565b90509250929050565b600181811c908216806111cf57607f821691505b6020821081036111ef57634e487b7160e01b600052602260045260246000fd5b50919050565b60006001820161121557634e487b7160e01b600052601160045260246000fd5b5060010190565b6000835161122e818460208801610ee2565b835190830190611242818360208801610ee2565b01949350505050565b601f82111561042d57600081815260208120601f850160051c810160208610156112725750805b601f850160051c820191505b81811015610af95782815560010161127e565b815167ffffffffffffffff8111156112ab576112ab610fe0565b6112bf816112b984546111bb565b8461124b565b602080601f8311600181146112f457600084156112dc5750858301515b600019600386901b1c1916600185901b178555610af9565b600085815260208120601f198616915b8281101561132357888601518255948401946001909101908401611304565b50858210156113415787850151600019600388901b60f8161c191681555b5050505050600190811b01905550565b6001600160a01b038581168252841660208201526040810183905260806060820181905260009061138490830184610f06565b9695505050505050565b6000602082840312156113a057600080fd5b8151610b7081610eaf56fea2646970667358221220166ed1c100be3e2f0273032ccb033a3fbdc1d2757bc44d8c635a74354238b44264736f6c63430008140033",
  "linkReferences": {},
  "deployedLinkReferences": {}
}