{
  "_format": "hh-sol-artifact-1",
  "contractName": "NFTMarketplace",
  "sourceName": "contracts/NFTMarketplace.sol",
  "abi": [
    {
      "inputs": [],
      "stateMutability": "nonpayable",
      "type": "constructor"
    },
    {
      "inputs": [
        {
          "internalType": "address",
          "name": "owner",
          "type": "address"
        }
      ],
      "name": "OwnableInvalidOwner",
      "type": "error"
    },
    {
      "inputs": [
        {
          "internalType": "address",
          "name": "account",
          "type": "address"
        }
      ],
      "name": "OwnableUnauthorizedAccount",
      "type": "error"
    },
    {
      "inputs": [],
      "name": "ReentrancyGuardReentrantCall",
      "type": "error"
    },
    {
      "anonymous": false,
      "inputs": [
        {
          "indexed": false,
          "internalType": "uint256",
          "name": "newPrice",
          "type": "uint256"
        }
      ],
      "name": "ListingPriceUpdated",
      "type": "event"
    },
    {
      "anonymous": false,
      "inputs": [
        {
          "indexed": true,
          "internalType": "uint256",
          "name": "itemId",
          "type": "uint256"
        },
        {
          "indexed": true,
          "internalType": "address",
          "name": "nftContract",
          "type": "address"
        },
        {
          "indexed": true,
          "internalType": "uint256",
          "name": "tokenId",
          "type": "uint256"
        },
        {
          "indexed": false,
          "internalType": "address",
          "name": "seller",
          "type": "address"
        },
        {
          "indexed": false,
          "internalType": "address",
          "name": "owner",
          "type": "address"
        },
        {
          "indexed": false,
          "internalType": "uint256",
          "name": "price",
          "type": "uint256"
        },
        {
          "indexed": false,
          "internalType": "bool",
          "name": "sold",
          "type": "bool"
        }
      ],
      "name": "MarketItemCreated",
      "type": "event"
    },
    {
      "anonymous": false,
      "inputs": [
        {
          "indexed": true,
          "internalType": "uint256",
          "name": "itemId",
          "type": "uint256"
        },
        {
          "indexed": true,
          "internalType": "address",
          "name": "nftContract",
          "type": "address"
        },
        {
          "indexed": true,
          "internalType": "uint256",
          "name": "tokenId",
          "type": "uint256"
        },
        {
          "indexed": false,
          "internalType": "address",
          "name": "seller",
          "type": "address"
        },
        {
          "indexed": false,
          "internalType": "address",
          "name": "buyer",
          "type": "address"
        },
        {
          "indexed": false,
          "internalType": "uint256",
          "name": "price",
          "type": "uint256"
        }
      ],
      "name": "MarketItemSold",
      "type": "event"
    },
    {
      "anonymous": false,
      "inputs": [
        {
          "indexed": true,
          "internalType": "address",
          "name": "previousOwner",
          "type": "address"
        },
        {
          "indexed": true,
          "internalType": "address",
          "name": "newOwner",
          "type": "address"
        }
      ],
      "name": "OwnershipTransferred",
      "type": "event"
    },
    {
      "inputs": [
        {
          "internalType": "address",
          "name": "nftContract",
          "type": "address"
        },
        {
          "internalType": "uint256",
          "name": "tokenId",
          "type": "uint256"
        },
        {
          "internalType": "uint256",
          "name": "price",
          "type": "uint256"
        }
      ],
      "name": "createMarketItem",
      "outputs": [
        {
          "internalType": "uint256",
          "name": "",
          "type": "uint256"
        }
      ],
      "stateMutability": "payable",
      "type": "function"
    },
    {
      "inputs": [
        {
          "internalType": "address",
          "name": "nftContract",
          "type": "address"
        },
        {
          "internalType": "uint256",
          "name": "itemId",
          "type": "uint256"
        }
      ],
      "name": "createMarketSale",
      "outputs": [],
      "stateMutability": "payable",
      "type": "function"
    },
    {
      "inputs": [],
      "name": "fetchItemsCreated",
      "outputs": [
        {
          "components": [
            {
              "internalType": "uint256",
              "name": "itemId",
              "type": "uint256"
            },
            {
              "internalType": "address",
              "name": "nftContract",
              "type": "address"
            },
            {
              "internalType": "uint256",
              "name": "tokenId",
              "type": "uint256"
            },
            {
              "internalType": "address payable",
              "name": "seller",
              "type": "address"
            },
            {
              "internalType": "address payable",
              "name": "owner",
              "type": "address"
            },
            {
              "internalType": "uint256",
              "name": "price",
              "type": "uint256"
            },
            {
              "internalType": "bool",
              "name": "sold",
              "type": "bool"
            }
          ],
          "internalType": "struct NFTMarketplace.MarketItem[]",
          "name": "",
          "type": "tuple[]"
        }
      ],
      "stateMutability": "view",
      "type": "function"
    },
    {
      "inputs": [
        {
          "internalType": "uint256",
          "name": "marketItemId",
          "type": "uint256"
        }
      ],
      "name": "fetchMarketItem",
      "outputs": [
        {
          "components": [
            {
              "internalType": "uint256",
              "name": "itemId",
              "type": "uint256"
            },
            {
              "internalType": "address",
              "name": "nftContract",
              "type": "address"
            },
            {
              "internalType": "uint256",
              "name": "tokenId",
              "type": "uint256"
            },
            {
              "internalType": "address payable",
              "name": "seller",
              "type": "address"
            },
            {
              "internalType": "address payable",
              "name": "owner",
              "type": "address"
            },
            {
              "internalType": "uint256",
              "name": "price",
              "type": "uint256"
            },
            {
              "internalType": "bool",
              "name": "sold",
              "type": "bool"
            }
          ],
          "internalType": "struct NFTMarketplace.MarketItem",
          "name": "",
          "type": "tuple"
        }
      ],
      "stateMutability": "view",
      "type": "function"
    },
    {
      "inputs": [],
      "name": "fetchMarketItems",
      "outputs": [
        {
          "components": [
            {
              "internalType": "uint256",
              "name": "itemId",
              "type": "uint256"
            },
            {
              "internalType": "address",
              "name": "nftContract",
              "type": "address"
            },
            {
              "internalType": "uint256",
              "name": "tokenId",
              "type": "uint256"
            },
            {
              "internalType": "address payable",
              "name": "seller",
              "type": "address"
            },
            {
              "internalType": "address payable",
              "name": "owner",
              "type": "address"
            },
            {
              "internalType": "uint256",
              "name": "price",
              "type": "uint256"
            },
            {
              "internalType": "bool",
              "name": "sold",
              "type": "bool"
            }
          ],
          "internalType": "struct NFTMarketplace.MarketItem[]",
          "name": "",
          "type": "tuple[]"
        }
      ],
      "stateMutability": "view",
      "type": "function"
    },
    {
      "inputs": [],
      "name": "fetchMyNFTs",
      "outputs": [
        {
          "components": [
            {
              "internalType": "uint256",
              "name": "itemId",
              "type": "uint256"
            },
            {
              "internalType": "address",
              "name": "nftContract",
              "type": "address"
            },
            {
              "internalType": "uint256",
              "name": "tokenId",
              "type": "uint256"
            },
            {
              "internalType": "address payable",
              "name": "seller",
              "type": "address"
            },
            {
              "internalType": "address payable",
              "name": "owner",
              "type": "address"
            },
            {
              "internalType": "uint256",
              "name": "price",
              "type": "uint256"
            },
            {
              "internalType": "bool",
              "name": "sold",
              "type": "bool"
            }
          ],
          "internalType": "struct NFTMarketplace.MarketItem[]",
          "name": "",
          "type": "tuple[]"
        }
      ],
      "stateMutability": "view",
      "type": "function"
    },
    {
      "inputs": [],
      "name": "getListingPrice",
      "outputs": [
        {
          "internalType": "uint256",
          "name": "",
          "type": "uint256"
        }
      ],
      "stateMutability": "view",
      "type": "function"
    },
    {
      "inputs": [],
      "name": "listingPrice",
      "outputs": [
        {
          "internalType": "uint256",
          "name": "",
          "type": "uint256"
        }
      ],
      "stateMutability": "view",
      "type": "function"
    },
    {
      "inputs": [],
      "name": "owner",
      "outputs": [
        {
          "internalType": "address",
          "name": "",
          "type": "address"
        }
      ],
      "stateMutability": "view",
      "type": "function"
    },
    {
      "inputs": [],
      "name": "renounceOwnership",
      "outputs": [],
      "stateMutability": "nonpayable",
      "type": "function"
    },
    {
      "inputs": [
        {
          "internalType": "address",
          "name": "newOwner",
          "type": "address"
        }
      ],
      "name": "transferOwnership",
      "outputs": [],
      "stateMutability": "nonpayable",
      "type": "function"
    },
    {
      "inputs": [
        {
          "internalType": "uint256",
          "name": "_listingPrice",
          "type": "uint256"
        }
      ],
      "name": "updateListingPrice",
      "outputs": [],
      "stateMutability": "payable",
      "type": "function"
    },
    {
      "inputs": [],
      "name": "withdrawListingPrice",
      "outputs": [],
      "stateMutability": "nonpayable",
      "type": "function"
    }
  ],
  "bytecode": "0x60806040526658d15e1762800060045534801561001b57600080fd5b506001600055338061004757604051631e4fbdf760e01b81526000600482015260240160405180910390fd5b61005081610056565b506100a8565b600180546001600160a01b038381166001600160a01b0319831681179093556040519116919082907f8be0079c531659141344cd1fd0a4f28419497f9722a3daafe3b4186f6b6457e090600090a35050565b610fda806100b76000396000f3fe6080604052600436106100c25760003560e01c8063715018a61161007f578063c23b139e11610059578063c23b139e146101cd578063c78f19f9146101e0578063f064c32e146101f6578063f2fde38b1461020b57600080fd5b8063715018a61461017d5780638da5cb5b14610192578063ae677aa3146101ba57600080fd5b80630f08efe0146100c757806312e85585146100f257806315b92cad14610111578063202e3740146101285780632a45b2501461013d57806358eb2df51461016a575b600080fd5b3480156100d357600080fd5b506100dc61022b565b6040516100e99190610e14565b60405180910390f35b3480156100fe57600080fd5b506004545b6040519081526020016100e9565b34801561011d57600080fd5b506101266103a6565b005b34801561013457600080fd5b506100dc6103ea565b34801561014957600080fd5b5061015d610158366004610e62565b6105a8565b6040516100e99190610e7b565b610103610178366004610eab565b610625565b34801561018957600080fd5b50610126610885565b34801561019e57600080fd5b506001546040516001600160a01b0390911681526020016100e9565b6101266101c8366004610e62565b610899565b6101266101db366004610ede565b6108dc565b3480156101ec57600080fd5b5061010360045481565b34801561020257600080fd5b506100dc610ae0565b34801561021757600080fd5b50610126610226366004610f08565b610c9e565b600254600354606091906000906102429083610f39565b90506000808267ffffffffffffffff81111561026057610260610f4c565b60405190808252806020026020018201604052801561029957816020015b610286610d82565b81526020019060019003908161027e5790505b50905060005b8481101561039d5760006005816102b7846001610f62565b81526020810191909152604001600020600401546001600160a01b03160361038b5760006102e6826001610f62565b600081815260056020818152604092839020835160e0810185528154815260018201546001600160a01b0390811693820193909352600282015494810194909452600381015482166060850152600481015490911660808401529081015460a0830152600681015460ff16151560c083015285519293509185908790811061037057610370610f75565b6020908102919091010152610386600186610f62565b945050505b8061039581610f8b565b91505061029f565b50949350505050565b6103ae610cd9565b6001546040516001600160a01b03909116904780156108fc02916000818181858888f193505050501580156103e7573d6000803e3d6000fd5b50565b600254606090600080805b8381101561044f57336005600061040d846001610f62565b81526020810191909152604001600020600401546001600160a01b03160361043d5761043a600184610f62565b92505b8061044781610f8b565b9150506103f5565b5060008267ffffffffffffffff81111561046b5761046b610f4c565b6040519080825280602002602001820160405280156104a457816020015b610491610d82565b8152602001906001900390816104895790505b50905060005b8481101561039d5733600560006104c2846001610f62565b81526020810191909152604001600020600401546001600160a01b0316036105965760006104f1826001610f62565b600081815260056020818152604092839020835160e0810185528154815260018201546001600160a01b0390811693820193909352600282015494810194909452600381015482166060850152600481015490911660808401529081015460a0830152600681015460ff16151560c083015285519293509185908790811061057b5761057b610f75565b6020908102919091010152610591600186610f62565b945050505b806105a081610f8b565b9150506104aa565b6105b0610d82565b50600090815260056020818152604092839020835160e0810185528154815260018201546001600160a01b0390811693820193909352600282015494810194909452600381015482166060850152600481015490911660808401529081015460a08301526006015460ff16151560c082015290565b600061062f610d06565b600082116106845760405162461bcd60e51b815260206004820152601c60248201527f5072696365206d757374206265206174206c656173742031207765690000000060448201526064015b60405180910390fd5b60045434146106e15760405162461bcd60e51b8152602060048201526024808201527f5072696365206d75737420626520657175616c20746f206c697374696e6720706044820152637269636560e01b606482015260840161067b565b600280549060006106f183610f8b565b9091555050600280546040805160e0810182528281526001600160a01b0388811660208084018281528486018b8152336060870181815260006080890181815260a08a018f815260c08b018381528d8452600598899052928c90209a518b55955160018b0180546001600160a01b0319908116928c1692909217905594519c8a019c909c5590516003890180548516918916919091179055995160048089018054909416919097161790915590519185019190915595516006909301805460ff19169315159390931790925591516323b872dd60e01b815291820193909352306024820152604481018690529091906323b872dd90606401600060405180830381600087803b15801561080357600080fd5b505af1158015610817573d6000803e3d6000fd5b505060408051338152600060208201819052818301889052606082015290518793506001600160a01b038916925084917f045dfa01dcba2b36aba1d3dc4a874f4b0c5d2fbeb8d2c4b34a7d88c8d8f929d1919081900360800190a4905061087e6001600055565b9392505050565b61088d610cd9565b6108976000610d30565b565b6108a1610cd9565b60048190556040518181527f661c8d2e494b21e778d6b19ffb42ca00ee63062be7f9eb28af0850e01a9cf2149060200160405180910390a150565b6108e4610d06565b600081815260056020819052604090912090810154600290910154348214610976576040805162461bcd60e51b81526020600482015260248101919091527f506c65617365207375626d6974207468652061736b696e67207072696365206960448201527f6e206f7264657220746f20636f6d706c65746520746865207075726368617365606482015260840161067b565b6000838152600560205260408082206003015490516001600160a01b03909116913480156108fc02929091818181858888f193505050501580156109be573d6000803e3d6000fd5b506040516323b872dd60e01b8152306004820152336024820152604481018290526001600160a01b038516906323b872dd90606401600060405180830381600087803b158015610a0d57600080fd5b505af1158015610a21573d6000803e3d6000fd5b50505060008481526005602052604081206004810180546001600160a01b03191633179055600601805460ff1916600117905560038054925090610a6483610f8b565b90915550506000838152600560209081526040918290206003015482516001600160a01b0391821681523392810192909252918101849052829186169085907f6a5f9d2b6ff1f375ebe095556dc91e68fce80a6187d7527cce81c3ab02726c9c9060600160405180910390a45050610adc6001600055565b5050565b600254606090600080805b83811015610b45573360056000610b03846001610f62565b81526020810191909152604001600020600301546001600160a01b031603610b3357610b30600184610f62565b92505b80610b3d81610f8b565b915050610aeb565b5060008267ffffffffffffffff811115610b6157610b61610f4c565b604051908082528060200260200182016040528015610b9a57816020015b610b87610d82565b815260200190600190039081610b7f5790505b50905060005b8481101561039d573360056000610bb8846001610f62565b81526020810191909152604001600020600301546001600160a01b031603610c8c576000610be7826001610f62565b600081815260056020818152604092839020835160e0810185528154815260018201546001600160a01b0390811693820193909352600282015494810194909452600381015482166060850152600481015490911660808401529081015460a0830152600681015460ff16151560c0830152855192935091859087908110610c7157610c71610f75565b6020908102919091010152610c87600186610f62565b945050505b80610c9681610f8b565b915050610ba0565b610ca6610cd9565b6001600160a01b038116610cd057604051631e4fbdf760e01b81526000600482015260240161067b565b6103e781610d30565b6001546001600160a01b031633146108975760405163118cdaa760e01b815233600482015260240161067b565b600260005403610d2957604051633ee5aeb560e01b815260040160405180910390fd5b6002600055565b600180546001600160a01b038381166001600160a01b0319831681179093556040519116919082907f8be0079c531659141344cd1fd0a4f28419497f9722a3daafe3b4186f6b6457e090600090a35050565b6040805160e081018252600080825260208201819052918101829052606081018290526080810182905260a0810182905260c081019190915290565b80518252602081015160018060a01b03808216602085015260408301516040850152806060840151166060850152806080840151166080850152505060a081015160a083015260c0810151151560c08301525050565b6020808252825182820181905260009190848201906040850190845b81811015610e5657610e43838551610dbe565b9284019260e09290920191600101610e30565b50909695505050505050565b600060208284031215610e7457600080fd5b5035919050565b60e08101610e898284610dbe565b92915050565b80356001600160a01b0381168114610ea657600080fd5b919050565b600080600060608486031215610ec057600080fd5b610ec984610e8f565b95602085013595506040909401359392505050565b60008060408385031215610ef157600080fd5b610efa83610e8f565b946020939093013593505050565b600060208284031215610f1a57600080fd5b61087e82610e8f565b634e487b7160e01b600052601160045260246000fd5b81810381811115610e8957610e89610f23565b634e487b7160e01b600052604160045260246000fd5b80820180821115610e8957610e89610f23565b634e487b7160e01b600052603260045260246000fd5b600060018201610f9d57610f9d610f23565b506001019056fea2646970667358221220d54df262ecc3cb255a9f6992821010844b7ba9509e11dbd224d2e6779b7db06064736f6c63430008140033",
  "linkReferences": {},
  "deployedLinkReferences": {}
}